{"abi":[{"type":"constructor","inputs":[{"name":"name","type":"string","internalType":"string"},{"name":"symbol","type":"string","internalType":"string"},{"name":"_faceValue","type":"uint256","internalType":"uint256"},{"name":"_couponRate","type":"uint256","internalType":"uint256"},{"name":"_maturityDate","type":"uint256","internalType":"uint256"},{"name":"_interestPaymentInterval","type":"uint256","internalType":"uint256"},{"name":"_totalSupply","type":"uint256","internalType":"uint256"}],"stateMutability":"nonpayable"},{"type":"function","name":"ADMIN_ROLE","inputs":[],"outputs":[{"name":"","type":"bytes32","internalType":"bytes32"}],"stateMutability":"view"},{"type":"function","name":"COMPLIANCE_ROLE","inputs":[],"outputs":[{"name":"","type":"bytes32","internalType":"bytes32"}],"stateMutability":"view"},{"type":"function","name":"DEFAULT_ADMIN_ROLE","inputs":[],"outputs":[{"name":"","type":"bytes32","internalType":"bytes32"}],"stateMutability":"view"},{"type":"function","name":"INTEREST_PAYER_ROLE","inputs":[],"outputs":[{"name":"","type":"bytes32","internalType":"bytes32"}],"stateMutability":"view"},{"type":"function","name":"accumulatedInterest","inputs":[],"outputs":[{"name":"","type":"uint256","internalType":"uint256"}],"stateMutability":"view"},{"type":"function","name":"allowance","inputs":[{"name":"owner","type":"address","internalType":"address"},{"name":"spender","type":"address","internalType":"address"}],"outputs":[{"name":"","type":"uint256","internalType":"uint256"}],"stateMutability":"view"},{"type":"function","name":"approve","inputs":[{"name":"spender","type":"address","internalType":"address"},{"name":"value","type":"uint256","internalType":"uint256"}],"outputs":[{"name":"","type":"bool","internalType":"bool"}],"stateMutability":"nonpayable"},{"type":"function","name":"balanceOf","inputs":[{"name":"account","type":"address","internalType":"address"}],"outputs":[{"name":"","type":"uint256","internalType":"uint256"}],"stateMutability":"view"},{"type":"function","name":"blacklisted","inputs":[{"name":"","type":"address","internalType":"address"}],"outputs":[{"name":"","type":"bool","internalType":"bool"}],"stateMutability":"view"},{"type":"function","name":"bondDetails","inputs":[],"outputs":[{"name":"faceValue","type":"uint256","internalType":"uint256"},{"name":"couponRate","type":"uint256","internalType":"uint256"},{"name":"maturityDate","type":"uint256","internalType":"uint256"},{"name":"nextInterestPayment","type":"uint256","internalType":"uint256"},{"name":"interestPaymentInterval","type":"uint256","internalType":"uint256"},{"name":"totalSupply","type":"uint256","internalType":"uint256"}],"stateMutability":"view"},{"type":"function","name":"bondMatured","inputs":[],"outputs":[{"name":"","type":"bool","internalType":"bool"}],"stateMutability":"view"},{"type":"function","name":"calculateInterestDue","inputs":[],"outputs":[{"name":"","type":"uint256","internalType":"uint256"}],"stateMutability":"view"},{"type":"function","name":"checkInterestPaymentDue","inputs":[],"outputs":[],"stateMutability":"nonpayable"},{"type":"function","name":"checkMaturity","inputs":[],"outputs":[],"stateMutability":"nonpayable"},{"type":"function","name":"decimals","inputs":[],"outputs":[{"name":"","type":"uint8","internalType":"uint8"}],"stateMutability":"view"},{"type":"function","name":"emergencyFreeze","inputs":[{"name":"account","type":"address","internalType":"address"}],"outputs":[],"stateMutability":"nonpayable"},{"type":"function","name":"emergencyPause","inputs":[],"outputs":[],"stateMutability":"nonpayable"},{"type":"function","name":"emergencyUnpause","inputs":[],"outputs":[],"stateMutability":"nonpayable"},{"type":"function","name":"getBondDetails","inputs":[],"outputs":[{"name":"","type":"tuple","internalType":"struct TokenizedBond.BondDetails","components":[{"name":"faceValue","type":"uint256","internalType":"uint256"},{"name":"couponRate","type":"uint256","internalType":"uint256"},{"name":"maturityDate","type":"uint256","internalType":"uint256"},{"name":"nextInterestPayment","type":"uint256","internalType":"uint256"},{"name":"interestPaymentInterval","type":"uint256","internalType":"uint256"},{"name":"totalSupply","type":"uint256","internalType":"uint256"}]}],"stateMutability":"view"},{"type":"function","name":"getRoleAdmin","inputs":[{"name":"role","type":"bytes32","internalType":"bytes32"}],"outputs":[{"name":"","type":"bytes32","internalType":"bytes32"}],"stateMutability":"view"},{"type":"function","name":"getTimeToNextPayment","inputs":[],"outputs":[{"name":"","type":"uint256","internalType":"uint256"}],"stateMutability":"view"},{"type":"function","name":"grantRole","inputs":[{"name":"role","type":"bytes32","internalType":"bytes32"},{"name":"account","type":"address","internalType":"address"}],"outputs":[],"stateMutability":"nonpayable"},{"type":"function","name":"hasRole","inputs":[{"name":"role","type":"bytes32","internalType":"bytes32"},{"name":"account","type":"address","internalType":"address"}],"outputs":[{"name":"","type":"bool","internalType":"bool"}],"stateMutability":"view"},{"type":"function","name":"isCompliant","inputs":[{"name":"account","type":"address","internalType":"address"}],"outputs":[{"name":"","type":"bool","internalType":"bool"}],"stateMutability":"view"},{"type":"function","name":"kycApproved","inputs":[{"name":"","type":"address","internalType":"address"}],"outputs":[{"name":"","type":"bool","internalType":"bool"}],"stateMutability":"view"},{"type":"function","name":"lastInterestClaim","inputs":[{"name":"","type":"address","internalType":"address"}],"outputs":[{"name":"","type":"uint256","internalType":"uint256"}],"stateMutability":"view"},{"type":"function","name":"name","inputs":[],"outputs":[{"name":"","type":"string","internalType":"string"}],"stateMutability":"view"},{"type":"function","name":"paused","inputs":[],"outputs":[{"name":"","type":"bool","internalType":"bool"}],"stateMutability":"view"},{"type":"function","name":"payInterest","inputs":[{"name":"recipients","type":"address[]","internalType":"address[]"}],"outputs":[],"stateMutability":"nonpayable"},{"type":"function","name":"renounceRole","inputs":[{"name":"role","type":"bytes32","internalType":"bytes32"},{"name":"callerConfirmation","type":"address","internalType":"address"}],"outputs":[],"stateMutability":"nonpayable"},{"type":"function","name":"revokeRole","inputs":[{"name":"role","type":"bytes32","internalType":"bytes32"},{"name":"account","type":"address","internalType":"address"}],"outputs":[],"stateMutability":"nonpayable"},{"type":"function","name":"setBlacklistStatus","inputs":[{"name":"account","type":"address","internalType":"address"},{"name":"status","type":"bool","internalType":"bool"}],"outputs":[],"stateMutability":"nonpayable"},{"type":"function","name":"setKYCStatus","inputs":[{"name":"account","type":"address","internalType":"address"},{"name":"status","type":"bool","internalType":"bool"}],"outputs":[],"stateMutability":"nonpayable"},{"type":"function","name":"setKYCStatusBatch","inputs":[{"name":"accounts","type":"address[]","internalType":"address[]"},{"name":"status","type":"bool","internalType":"bool"}],"outputs":[],"stateMutability":"nonpayable"},{"type":"function","name":"setTransferThreshold","inputs":[{"name":"_threshold","type":"uint256","internalType":"uint256"}],"outputs":[],"stateMutability":"nonpayable"},{"type":"function","name":"supportsInterface","inputs":[{"name":"interfaceId","type":"bytes4","internalType":"bytes4"}],"outputs":[{"name":"","type":"bool","internalType":"bool"}],"stateMutability":"view"},{"type":"function","name":"symbol","inputs":[],"outputs":[{"name":"","type":"string","internalType":"string"}],"stateMutability":"view"},{"type":"function","name":"totalSupply","inputs":[],"outputs":[{"name":"","type":"uint256","internalType":"uint256"}],"stateMutability":"view"},{"type":"function","name":"transfer","inputs":[{"name":"to","type":"address","internalType":"address"},{"name":"value","type":"uint256","internalType":"uint256"}],"outputs":[{"name":"","type":"bool","internalType":"bool"}],"stateMutability":"nonpayable"},{"type":"function","name":"transferFrom","inputs":[{"name":"from","type":"address","internalType":"address"},{"name":"to","type":"address","internalType":"address"},{"name":"value","type":"uint256","internalType":"uint256"}],"outputs":[{"name":"","type":"bool","internalType":"bool"}],"stateMutability":"nonpayable"},{"type":"function","name":"transferThreshold","inputs":[],"outputs":[{"name":"","type":"uint256","internalType":"uint256"}],"stateMutability":"view"},{"type":"event","name":"Approval","inputs":[{"name":"owner","type":"address","indexed":true,"internalType":"address"},{"name":"spender","type":"address","indexed":true,"internalType":"address"},{"name":"value","type":"uint256","indexed":false,"internalType":"uint256"}],"anonymous":false},{"type":"event","name":"BlacklistStatusChanged","inputs":[{"name":"account","type":"address","indexed":true,"internalType":"address"},{"name":"status","type":"bool","indexed":false,"internalType":"bool"}],"anonymous":false},{"type":"event","name":"BondMatured","inputs":[{"name":"maturityDate","type":"uint256","indexed":false,"internalType":"uint256"},{"name":"totalSupply","type":"uint256","indexed":false,"internalType":"uint256"}],"anonymous":false},{"type":"event","name":"ComplianceViolation","inputs":[{"name":"violator","type":"address","indexed":true,"internalType":"address"},{"name":"reason","type":"string","indexed":false,"internalType":"string"},{"name":"timestamp","type":"uint256","indexed":false,"internalType":"uint256"}],"anonymous":false},{"type":"event","name":"EmergencyAction","inputs":[{"name":"action","type":"string","indexed":false,"internalType":"string"},{"name":"initiator","type":"address","indexed":true,"internalType":"address"},{"name":"timestamp","type":"uint256","indexed":false,"internalType":"uint256"}],"anonymous":false},{"type":"event","name":"InterestPaid","inputs":[{"name":"recipient","type":"address","indexed":true,"internalType":"address"},{"name":"amount","type":"uint256","indexed":false,"internalType":"uint256"},{"name":"timestamp","type":"uint256","indexed":false,"internalType":"uint256"}],"anonymous":false},{"type":"event","name":"InterestPaymentDue","inputs":[{"name":"paymentDate","type":"uint256","indexed":false,"internalType":"uint256"},{"name":"totalInterestAmount","type":"uint256","indexed":false,"internalType":"uint256"}],"anonymous":false},{"type":"event","name":"KYCStatusChanged","inputs":[{"name":"account","type":"address","indexed":true,"internalType":"address"},{"name":"status","type":"bool","indexed":false,"internalType":"bool"}],"anonymous":false},{"type":"event","name":"LargeTransfer","inputs":[{"name":"from","type":"address","indexed":true,"internalType":"address"},{"name":"to","type":"address","indexed":true,"internalType":"address"},{"name":"amount","type":"uint256","indexed":false,"internalType":"uint256"},{"name":"timestamp","type":"uint256","indexed":false,"internalType":"uint256"}],"anonymous":false},{"type":"event","name":"MissedInterestPayment","inputs":[{"name":"dueDate","type":"uint256","indexed":false,"internalType":"uint256"},{"name":"amount","type":"uint256","indexed":false,"internalType":"uint256"}],"anonymous":false},{"type":"event","name":"Paused","inputs":[{"name":"account","type":"address","indexed":false,"internalType":"address"}],"anonymous":false},{"type":"event","name":"RoleAdminChanged","inputs":[{"name":"role","type":"bytes32","indexed":true,"internalType":"bytes32"},{"name":"previousAdminRole","type":"bytes32","indexed":true,"internalType":"bytes32"},{"name":"newAdminRole","type":"bytes32","indexed":true,"internalType":"bytes32"}],"anonymous":false},{"type":"event","name":"RoleGranted","inputs":[{"name":"role","type":"bytes32","indexed":true,"internalType":"bytes32"},{"name":"account","type":"address","indexed":true,"internalType":"address"},{"name":"sender","type":"address","indexed":true,"internalType":"address"}],"anonymous":false},{"type":"event","name":"RoleRevoked","inputs":[{"name":"role","type":"bytes32","indexed":true,"internalType":"bytes32"},{"name":"account","type":"address","indexed":true,"internalType":"address"},{"name":"sender","type":"address","indexed":true,"internalType":"address"}],"anonymous":false},{"type":"event","name":"SuspiciousActivity","inputs":[{"name":"account","type":"address","indexed":true,"internalType":"address"},{"name":"activityType","type":"string","indexed":false,"internalType":"string"},{"name":"timestamp","type":"uint256","indexed":false,"internalType":"uint256"}],"anonymous":false},{"type":"event","name":"ThresholdExceeded","inputs":[{"name":"account","type":"address","indexed":true,"internalType":"address"},{"name":"amount","type":"uint256","indexed":false,"internalType":"uint256"},{"name":"thresholdType","type":"string","indexed":false,"internalType":"string"}],"anonymous":false},{"type":"event","name":"Transfer","inputs":[{"name":"from","type":"address","indexed":true,"internalType":"address"},{"name":"to","type":"address","indexed":true,"internalType":"address"},{"name":"value","type":"uint256","indexed":false,"internalType":"uint256"}],"anonymous":false},{"type":"event","name":"Unpaused","inputs":[{"name":"account","type":"address","indexed":false,"internalType":"address"}],"anonymous":false},{"type":"error","name":"AccessControlBadConfirmation","inputs":[]},{"type":"error","name":"AccessControlUnauthorizedAccount","inputs":[{"name":"account","type":"address","internalType":"address"},{"name":"neededRole","type":"bytes32","internalType":"bytes32"}]},{"type":"error","name":"ERC20InsufficientAllowance","inputs":[{"name":"spender","type":"address","internalType":"address"},{"name":"allowance","type":"uint256","internalType":"uint256"},{"name":"needed","type":"uint256","internalType":"uint256"}]},{"type":"error","name":"ERC20InsufficientBalance","inputs":[{"name":"sender","type":"address","internalType":"address"},{"name":"balance","type":"uint256","internalType":"uint256"},{"name":"needed","type":"uint256","internalType":"uint256"}]},{"type":"error","name":"ERC20InvalidApprover","inputs":[{"name":"approver","type":"address","internalType":"address"}]},{"type":"error","name":"ERC20InvalidReceiver","inputs":[{"name":"receiver","type":"address","internalType":"address"}]},{"type":"error","name":"ERC20InvalidSender","inputs":[{"name":"sender","type":"address","internalType":"address"}]},{"type":"error","name":"ERC20InvalidSpender","inputs":[{"name":"spender","type":"address","internalType":"address"}]},{"type":"error","name":"EnforcedPause","inputs":[]},{"type":"error","name":"ExpectedPause","inputs":[]},{"type":"error","name":"ReentrancyGuardReentrantCall","inputs":[]}],"bytecode":{"object":"0x608060405269021e19e0c9bab24000006011553480156200001f57600080fd5b506040516200288838038062002888833981016040819052620000429162000747565b868660036200005283826200086e565b5060046200006182826200086e565b50506001600755506200007660003362000197565b50620000a37fa49807205ce4d355092ef5a8a18f56e8913cf4a201fbe287825b095693c217753362000197565b50620000d07f442a94f1a1fac79af32856af2a64f63648cfa2ef3b98610a5bb7cbec4cee69853362000197565b50620000fd7f2711290f74eb811eb2cd210713cc9761c2d1d2e290b47b439657040005d767703362000197565b506040518060c0016040528086815260200185815260200184815260200183426200012991906200093a565b8152602080820185905260409182018490528251600855820151600955810151600a556060810151600b556080810151600c5560a00151600d556200016f33826200024a565b5050336000908152600e60205260409020805460ff19166001179055506200095c9350505050565b60008281526006602090815260408083206001600160a01b038516845290915281205460ff16620002405760008381526006602090815260408083206001600160a01b03861684529091529020805460ff19166001179055620001f73390565b6001600160a01b0316826001600160a01b0316847f2f8788117e7eff1d82e926ec794901d17c78024a50270940304540a733656f0d60405160405180910390a450600162000244565b5060005b92915050565b6001600160a01b0382166200027a5760405163ec442f0560e01b8152600060048201526024015b60405180910390fd5b62000288600083836200028c565b5050565b6001600160a01b03831615801590620002ad57506001600160a01b03821615155b15620004ff576001600160a01b0383166000908152600e602052604090205460ff168015620002f457506001600160a01b0382166000908152600e602052604090205460ff165b620003315760405162461bcd60e51b815260206004820152600c60248201526b12d650c81c995c5d5a5c995960a21b604482015260640162000271565b6001600160a01b0383166000908152600f602052604090205460ff161580156200037457506001600160a01b0382166000908152600f602052604090205460ff16155b620003b05760405162461bcd60e51b815260206004820152600b60248201526a109b1858dadb1a5cdd195960aa1b604482015260640162000271565b60115481106200046d57604080518281524260208201526001600160a01b0380851692908616917ff540eadf4e9068bd5fc9fed1303d70d62125e4c77bae2d0118c8a5613a7304a1910160405180910390a3826001600160a01b03167fb8b73915aa52a923b367fd4ed90e347c6620c2084ad3b2d2495172f59102bca28260405162000464918152604060208201819052600e908201526d2620a923a2afaa2920a729a322a960911b606082015260800190565b60405180910390a25b6001600160a01b0383166000908152602081905260409020548103620004ff57604080518181526015818301527f46554c4c5f42414c414e43455f5452414e534645520000000000000000000000606082015242602082015290516001600160a01b038516917f97ca9566ce9916c416b39fc3af410e1eb1d605581a9f90569b7147932879db44919081900360800190a25b6200050c83838362000511565b505050565b6200051b62000528565b6200050c8383836200054f565b60055460ff16156200054d5760405163d93c066560e01b815260040160405180910390fd5b565b6001600160a01b0383166200057e5780600260008282546200057291906200093a565b90915550620005f29050565b6001600160a01b03831660009081526020819052604090205481811015620005d35760405163391434e360e21b81526001600160a01b0385166004820152602481018290526044810183905260640162000271565b6001600160a01b03841660009081526020819052604090209082900390555b6001600160a01b03821662000610576002805482900390556200062f565b6001600160a01b03821660009081526020819052604090208054820190555b816001600160a01b0316836001600160a01b03167fddf252ad1be2c89b69c2b068fc378daa952ba7f163c4a11628f55a4df523b3ef836040516200067591815260200190565b60405180910390a3505050565b634e487b7160e01b600052604160045260246000fd5b600082601f830112620006aa57600080fd5b81516001600160401b0380821115620006c757620006c762000682565b604051601f8301601f19908116603f01168101908282118183101715620006f257620006f262000682565b816040528381526020925086838588010111156200070f57600080fd5b600091505b8382101562000733578582018301518183018401529082019062000714565b600093810190920192909252949350505050565b600080600080600080600060e0888a0312156200076357600080fd5b87516001600160401b03808211156200077b57600080fd5b620007898b838c0162000698565b985060208a0151915080821115620007a057600080fd5b50620007af8a828b0162000698565b60408a015160608b015160808c015160a08d015160c0909d01519b9e939d50919b909a919950975095509350505050565b600181811c90821680620007f557607f821691505b6020821081036200081657634e487b7160e01b600052602260045260246000fd5b50919050565b601f8211156200050c57600081815260208120601f850160051c81016020861015620008455750805b601f850160051c820191505b81811015620008665782815560010162000851565b505050505050565b81516001600160401b038111156200088a576200088a62000682565b620008a2816200089b8454620007e0565b846200081c565b602080601f831160018114620008da5760008415620008c15750858301515b600019600386901b1c1916600185901b17855562000866565b600085815260208120601f198616915b828110156200090b57888601518255948401946001909101908401620008ea565b50858210156200092a5787850151600019600388901b60f8161c191681555b5050505050600190811b01905550565b808201808211156200024457634e487b7160e01b600052601160045260246000fd5b611f1c806200096c6000396000f3fe608060405234801561001057600080fd5b50600436106102535760003560e01c80635a82fc3511610146578063a217fddf116100c3578063dbac26e911610087578063dbac26e914610553578063dc38710a14610576578063dd62ed3e1461057e578063ea2de8a4146105b7578063f7b32f0f146105c4578063fb4213f6146105eb57600080fd5b8063a217fddf1461050a578063a3f569ae14610512578063a9059cbb14610525578063caf9e55e14610538578063d547741f1461054057600080fd5b806391d148541161010a57806391d14854146104b657806392486d06146104c957806395d89b41146104dc5780639c846af2146104e4578063a200e5d0146104f757600080fd5b80635a82fc35146104415780635c975abb1461044a5780636641cc641461045557806370a082311461047857806375b238fc146104a157600080fd5b8063248a9ca3116101d457806338961dca1161019857806338961dca146103c157806346737747146103d45780634a4e3bd5146103dd5780634ce02414146103e557806351858e271461043957600080fd5b8063248a9ca3146103615780632f2ff15d146103845780632fb3f01f14610397578063313ce5671461039f57806336568abe146103ae57600080fd5b8063085a00b11161021b578063085a00b1146102e0578063095ea7b31461032b5780631070eb4f1461033e57806318160ddd1461034657806323b872dd1461034e57600080fd5b806301ffc9a71461025857806303d29d2814610280578063062d3bd71461029557806306fdde03146102b8578063074e58d6146102cd575b600080fd5b61026b610266366004611a2e565b61060b565b60405190151581526020015b60405180910390f35b61029361028e366004611a8b565b610642565b005b6102aa600080516020611ea783398151915281565b604051908152602001610277565b6102c061078a565b6040516102779190611abe565b6102936102db366004611b0c565b61081c565b600854600954600a54600b54600c54600d546102fe95949392919086565b604080519687526020870195909552938501929092526060840152608083015260a082015260c001610277565b61026b610339366004611b27565b61094f565b6102aa610967565b6002546102aa565b61026b61035c366004611b51565b6109e3565b6102aa61036f366004611b8d565b60009081526006602052604090206001015490565b610293610392366004611ba6565b610a07565b610293610a32565b60405160128152602001610277565b6102936103bc366004611ba6565b610adc565b6102936103cf366004611c15565b610b0f565b6102aa60115481565b610293610de6565b6103ed610e69565b6040516102779190600060c082019050825182526020830151602083015260408301516040830152606083015160608301526080830151608083015260a083015160a083015292915050565b610293610edf565b6102aa60125481565b60055460ff1661026b565b61026b610463366004611b0c565b600e6020526000908152604090205460ff1681565b6102aa610486366004611b0c565b6001600160a01b031660009081526020819052604090205490565b6102aa600080516020611ec783398151915281565b61026b6104c4366004611ba6565b610f59565b6102936104d7366004611b8d565b610f84565b6102c0610fa2565b6102936104f2366004611c57565b610fb1565b61026b610505366004611b0c565b6110ac565b6102aa600081565b610293610520366004611a8b565b6110ef565b61026b610533366004611b27565b6111c6565b6102aa6111d4565b61029361054e366004611ba6565b6111f9565b61026b610561366004611b0c565b600f6020526000908152604090205460ff1681565b61029361121e565b6102aa61058c366004611cab565b6001600160a01b03918216600090815260016020908152604080832093909416825291909152205490565b60135461026b9060ff1681565b6102aa7f2711290f74eb811eb2cd210713cc9761c2d1d2e290b47b439657040005d7677081565b6102aa6105f9366004611b0c565b60106020526000908152604090205481565b60006001600160e01b03198216637965db0b60e01b148061063c57506301ffc9a760e01b6001600160e01b03198316145b92915050565b600080516020611ea783398151915261065a8161128e565b6001600160a01b0383166000818152600f6020908152604091829020805460ff191686151590811790915591519182527fbece2c59ff19aac27479189f9483d2ef16545a8b28e6153240d00d393a6496f8910160405180910390a281156107855760408051818152600b818301526a10931050d2d31254d5115160aa1b606082015242602082015290516001600160a01b038516917fe9aec22c81d6532fbe3b197ee399a3c37023ba155f7477efb8a88f2153eb0666919081900360800190a26040805181815260129181019190915271105111115117d513d7d0931050d2d31254d560721b60608201524260208201526001600160a01b038416907f97ca9566ce9916c416b39fc3af410e1eb1d605581a9f90569b7147932879db44906080015b60405180910390a25b505050565b60606003805461079990611cd5565b80601f01602080910402602001604051908101604052809291908181526020018280546107c590611cd5565b80156108125780601f106107e757610100808354040283529160200191610812565b820191906000526020600020905b8154815290600101906020018083116107f557829003601f168201915b5050505050905090565b600080516020611ea78339815191526108348161128e565b6001600160a01b0382166000818152600f6020908152604091829020805460ff1916600190811790915591519182527fbece2c59ff19aac27479189f9483d2ef16545a8b28e6153240d00d393a6496f8910160405180910390a260408051818152600e818301526d20a1a1a7aaa72a2fa32927ad22a760911b6060820152426020820152905133917f6758593a60801a617f0db7ba7baa12f6c9e46bafd2d55b3dad6b807d1c215a9c919081900360800190a2604080518181526010818301526f454d455247454e43595f465245455a4560801b606082015242602082015290516001600160a01b038416917f97ca9566ce9916c416b39fc3af410e1eb1d605581a9f90569b7147932879db44919081900360800190a25050565b60003361095d818585611298565b5060019392505050565b600b5460009042101561097a5750600090565b600c54600954600854600092916301e13380916127109161099a91611d25565b6109a49190611d3c565b6109ae9190611d3c565b6109b89190611d25565b90506109c66012600a611e42565b6002546109d39083611d25565b6109dd9190611d3c565b91505090565b6000336109f18582856112a5565b6109fc85858561131e565b506001949350505050565b600082815260066020526040902060010154610a228161128e565b610a2c838361137d565b50505050565b600b544210610ada576000610a45610967565b600b5460408051918252602082018390529192507f314c59b5d6aafd367afec8951159c23518eb446ff2fbb5a7e9df208c96ea5dcf910160405180910390a1600b54610a949062015180611e51565b421115610ad857600b5460408051918252602082018390527f079d83ab4b2bb6c33bb925bb6adaa0c8fb7a53d17e367af21cab61fc5d31d74f910160405180910390a15b505b565b6001600160a01b0381163314610b055760405163334bd91960e11b815260040160405180910390fd5b6107858282611411565b7f2711290f74eb811eb2cd210713cc9761c2d1d2e290b47b439657040005d76770610b398161128e565b610b4161147e565b600b54421015610b8f5760405162461bcd60e51b8152602060048201526014602482015273125b9d195c995cdd081b9bdd08191d59481e595d60621b60448201526064015b60405180910390fd5b600c54600954600854600092916301e133809161271091610baf91611d25565b610bb99190611d3c565b610bc39190611d3c565b610bcd9190611d25565b905060005b83811015610dc057600e6000868684818110610bf057610bf0611e64565b9050602002016020810190610c059190611b0c565b6001600160a01b0316815260208101919091526040016000205460ff168015610c735750600f6000868684818110610c3f57610c3f611e64565b9050602002016020810190610c549190611b0c565b6001600160a01b0316815260208101919091526040016000205460ff16155b15610dae576000610ca4868684818110610c8f57610c8f611e64565b90506020020160208101906104869190611b0c565b90508015610dac576000610cba6012600a611e42565b610cc48584611d25565b610cce9190611d3c565b90504260106000898987818110610ce757610ce7611e64565b9050602002016020810190610cfc9190611b0c565b6001600160a01b03166001600160a01b03168152602001908152602001600020819055508060126000828254610d329190611e51565b909155508790508684818110610d4a57610d4a611e64565b9050602002016020810190610d5f9190611b0c565b6001600160a01b03167fee1309a4377fcf085ae48643e7f271c4ca33638acab04352e6df0786387a4d968242604051610da2929190918252602082015260400190565b60405180910390a2505b505b80610db881611e7a565b915050610bd2565b50600c54600b8054600090610dd6908490611e51565b9091555050600160075550505050565b600080516020611ec7833981519152610dfe8161128e565b610e066114a8565b6040805181815260119181019190915270454d455247454e43595f554e504155534560781b606082015242602082015233907f6758593a60801a617f0db7ba7baa12f6c9e46bafd2d55b3dad6b807d1c215a9c906080015b60405180910390a250565b610ea26040518060c001604052806000815260200160008152602001600081526020016000815260200160008152602001600081525090565b506040805160c08101825260085481526009546020820152600a5491810191909152600b546060820152600c546080820152600d5460a082015290565b600080516020611ec7833981519152610ef78161128e565b610eff6114f5565b60408051818152600f918101919091526e454d455247454e43595f504155534560881b606082015242602082015233907f6758593a60801a617f0db7ba7baa12f6c9e46bafd2d55b3dad6b807d1c215a9c90608001610e5e565b60009182526006602090815260408084206001600160a01b0393909316845291905290205460ff1690565b600080516020611ec7833981519152610f9c8161128e565b50601155565b60606004805461079990611cd5565b600080516020611ea7833981519152610fc98161128e565b60005b838110156110a55782600e6000878785818110610feb57610feb611e64565b90506020020160208101906110009190611b0c565b6001600160a01b031681526020810191909152604001600020805460ff191691151591909117905584848281811061103a5761103a611e64565b905060200201602081019061104f9190611b0c565b6001600160a01b03167f3a620c3544f4661f38b303e51ff3c4cc552da5a80ec55d4e3875af78775e1a828460405161108b911515815260200190565b60405180910390a28061109d81611e7a565b915050610fcc565b5050505050565b6001600160a01b0381166000908152600e602052604081205460ff16801561063c5750506001600160a01b03166000908152600f602052604090205460ff161590565b600080516020611ea78339815191526111078161128e565b6001600160a01b0383166000818152600e6020908152604091829020805460ff191686151590811790915591519182527f3a620c3544f4661f38b303e51ff3c4cc552da5a80ec55d4e3875af78775e1a82910160405180910390a2816107855760408051818152600b918101919091526a12d650d7d4915593d2d15160aa1b60608201524260208201526001600160a01b038416907fe9aec22c81d6532fbe3b197ee399a3c37023ba155f7477efb8a88f2153eb06669060800161077c565b60003361095d81858561131e565b600b5460009042106111e65750600090565b600b546111f4904290611e93565b905090565b6000828152600660205260409020600101546112148161128e565b610a2c8383611411565b600a544210801590611233575060135460ff16155b15610ada576013805460ff19166001179055600a547fcd612c8900991ecb54e5b6d77d030e31a29bb8c7f10ab5744730344409fba7899061127360025490565b604080519283526020830191909152015b60405180910390a1565b610ad88133611532565b610785838383600161156f565b6001600160a01b03838116600090815260016020908152604080832093861683529290522054600019811015610a2c578181101561130f57604051637dc7a0d960e11b81526001600160a01b03841660048201526024810182905260448101839052606401610b86565b610a2c8484848403600061156f565b6001600160a01b03831661134857604051634b637e8f60e11b815260006004820152602401610b86565b6001600160a01b0382166113725760405163ec442f0560e01b815260006004820152602401610b86565b610785838383611644565b60006113898383610f59565b6114095760008381526006602090815260408083206001600160a01b03861684529091529020805460ff191660011790556113c13390565b6001600160a01b0316826001600160a01b0316847f2f8788117e7eff1d82e926ec794901d17c78024a50270940304540a733656f0d60405160405180910390a450600161063c565b50600061063c565b600061141d8383610f59565b156114095760008381526006602090815260408083206001600160a01b0386168085529252808320805460ff1916905551339286917ff6391f5c32d9c69d2a47ea670b442974b53935d1edc7fd64eb21e047a839171b9190a450600161063c565b6002600754036114a157604051633ee5aeb560e01b815260040160405180910390fd5b6002600755565b6114b06118af565b6005805460ff191690557f5db9ee0a495bf2e6ff9c91a7834c1ba4fdd244a5e8aa4e537bd38aeae4b073aa335b6040516001600160a01b039091168152602001611284565b6114fd6118d2565b6005805460ff191660011790557f62e78cea01bee320cd4e420270b5ea74000d11b0c9f74754ebdbfc544b05a2586114dd3390565b61153c8282610f59565b61156b5760405163e2517d3f60e01b81526001600160a01b038216600482015260248101839052604401610b86565b5050565b6001600160a01b0384166115995760405163e602df0560e01b815260006004820152602401610b86565b6001600160a01b0383166115c357604051634a1406b160e11b815260006004820152602401610b86565b6001600160a01b0380851660009081526001602090815260408083209387168352929052208290558015610a2c57826001600160a01b0316846001600160a01b03167f8c5be1e5ebec7d5bd14f71427d1e84f3dd0314c0f7b2291e5b200ac8c7c3b9258460405161163691815260200190565b60405180910390a350505050565b6001600160a01b0383161580159061166457506001600160a01b03821615155b156118a4576001600160a01b0383166000908152600e602052604090205460ff1680156116a957506001600160a01b0382166000908152600e602052604090205460ff165b6116e45760405162461bcd60e51b815260206004820152600c60248201526b12d650c81c995c5d5a5c995960a21b6044820152606401610b86565b6001600160a01b0383166000908152600f602052604090205460ff1615801561172657506001600160a01b0382166000908152600f602052604090205460ff16155b6117605760405162461bcd60e51b815260206004820152600b60248201526a109b1858dadb1a5cdd195960aa1b6044820152606401610b86565b601154811061181b57604080518281524260208201526001600160a01b0380851692908616917ff540eadf4e9068bd5fc9fed1303d70d62125e4c77bae2d0118c8a5613a7304a1910160405180910390a3826001600160a01b03167fb8b73915aa52a923b367fd4ed90e347c6620c2084ad3b2d2495172f59102bca282604051611812918152604060208201819052600e908201526d2620a923a2afaa2920a729a322a960911b606082015260800190565b60405180910390a25b6001600160a01b03831660009081526020819052604090205481036118a4576040805181815260158183015274232aa6262fa120a620a721a2afaa2920a729a322a960591b606082015242602082015290516001600160a01b038516917f97ca9566ce9916c416b39fc3af410e1eb1d605581a9f90569b7147932879db44919081900360800190a25b6107858383836118f6565b60055460ff16610ada57604051638dfc202b60e01b815260040160405180910390fd5b60055460ff1615610ada5760405163d93c066560e01b815260040160405180910390fd5b6118fe6118d2565b6107858383836001600160a01b03831661192f5780600260008282546119249190611e51565b909155506119a19050565b6001600160a01b038316600090815260208190526040902054818110156119825760405163391434e360e21b81526001600160a01b03851660048201526024810182905260448101839052606401610b86565b6001600160a01b03841660009081526020819052604090209082900390555b6001600160a01b0382166119bd576002805482900390556119dc565b6001600160a01b03821660009081526020819052604090208054820190555b816001600160a01b0316836001600160a01b03167fddf252ad1be2c89b69c2b068fc378daa952ba7f163c4a11628f55a4df523b3ef83604051611a2191815260200190565b60405180910390a3505050565b600060208284031215611a4057600080fd5b81356001600160e01b031981168114611a5857600080fd5b9392505050565b80356001600160a01b0381168114611a7657600080fd5b919050565b80358015158114611a7657600080fd5b60008060408385031215611a9e57600080fd5b611aa783611a5f565b9150611ab560208401611a7b565b90509250929050565b600060208083528351808285015260005b81811015611aeb57858101830151858201604001528201611acf565b506000604082860101526040601f19601f8301168501019250505092915050565b600060208284031215611b1e57600080fd5b611a5882611a5f565b60008060408385031215611b3a57600080fd5b611b4383611a5f565b946020939093013593505050565b600080600060608486031215611b6657600080fd5b611b6f84611a5f565b9250611b7d60208501611a5f565b9150604084013590509250925092565b600060208284031215611b9f57600080fd5b5035919050565b60008060408385031215611bb957600080fd5b82359150611ab560208401611a5f565b60008083601f840112611bdb57600080fd5b50813567ffffffffffffffff811115611bf357600080fd5b6020830191508360208260051b8501011115611c0e57600080fd5b9250929050565b60008060208385031215611c2857600080fd5b823567ffffffffffffffff811115611c3f57600080fd5b611c4b85828601611bc9565b90969095509350505050565b600080600060408486031215611c6c57600080fd5b833567ffffffffffffffff811115611c8357600080fd5b611c8f86828701611bc9565b9094509250611ca2905060208501611a7b565b90509250925092565b60008060408385031215611cbe57600080fd5b611cc783611a5f565b9150611ab560208401611a5f565b600181811c90821680611ce957607f821691505b602082108103611d0957634e487b7160e01b600052602260045260246000fd5b50919050565b634e487b7160e01b600052601160045260246000fd5b808202811582820484141761063c5761063c611d0f565b600082611d5957634e487b7160e01b600052601260045260246000fd5b500490565b600181815b80851115611d99578160001904821115611d7f57611d7f611d0f565b80851615611d8c57918102915b93841c9390800290611d63565b509250929050565b600082611db05750600161063c565b81611dbd5750600061063c565b8160018114611dd35760028114611ddd57611df9565b600191505061063c565b60ff841115611dee57611dee611d0f565b50506001821b61063c565b5060208310610133831016604e8410600b8410161715611e1c575081810a61063c565b611e268383611d5e565b8060001904821115611e3a57611e3a611d0f565b029392505050565b6000611a5860ff841683611da1565b8082018082111561063c5761063c611d0f565b634e487b7160e01b600052603260045260246000fd5b600060018201611e8c57611e8c611d0f565b5060010190565b8181038181111561063c5761063c611d0f56fe442a94f1a1fac79af32856af2a64f63648cfa2ef3b98610a5bb7cbec4cee6985a49807205ce4d355092ef5a8a18f56e8913cf4a201fbe287825b095693c21775a26469706673582212200e0745c7fefdfe8ab219ad64404fa69348c61305456806b65265688f2acf54ae64736f6c63430008140033","linkReferences":{}},"methodIdentifiers":{"ADMIN_ROLE()":"75b238fc","COMPLIANCE_ROLE()":"062d3bd7","DEFAULT_ADMIN_ROLE()":"a217fddf","INTEREST_PAYER_ROLE()":"f7b32f0f","accumulatedInterest()":"5a82fc35","allowance(address,address)":"dd62ed3e","approve(address,uint256)":"095ea7b3","balanceOf(address)":"70a08231","blacklisted(address)":"dbac26e9","bondDetails()":"085a00b1","bondMatured()":"ea2de8a4","calculateInterestDue()":"1070eb4f","checkInterestPaymentDue()":"2fb3f01f","checkMaturity()":"dc38710a","decimals()":"313ce567","emergencyFreeze(address)":"074e58d6","emergencyPause()":"51858e27","emergencyUnpause()":"4a4e3bd5","getBondDetails()":"4ce02414","getRoleAdmin(bytes32)":"248a9ca3","getTimeToNextPayment()":"caf9e55e","grantRole(bytes32,address)":"2f2ff15d","hasRole(bytes32,address)":"91d14854","isCompliant(address)":"a200e5d0","kycApproved(address)":"6641cc64","lastInterestClaim(address)":"fb4213f6","name()":"06fdde03","paused()":"5c975abb","payInterest(address[])":"38961dca","renounceRole(bytes32,address)":"36568abe","revokeRole(bytes32,address)":"d547741f","setBlacklistStatus(address,bool)":"03d29d28","setKYCStatus(address,bool)":"a3f569ae","setKYCStatusBatch(address[],bool)":"9c846af2","setTransferThreshold(uint256)":"92486d06","supportsInterface(bytes4)":"01ffc9a7","symbol()":"95d89b41","totalSupply()":"18160ddd","transfer(address,uint256)":"a9059cbb","transferFrom(address,address,uint256)":"23b872dd","transferThreshold()":"46737747"},"id":34}